S018000046696E616C5F50726F6A6563745F53452E73726563F5
S31500000000F0070020E925000091240000E525000006
S31500000010E5250000E5250000E5250000E5250000B2
S31500000020000000000000000000000000E5250000C0
S31500000030E525000000000000E5250000E52500009C
S3150000004069170000A91800009D190000651A000034
S31500000050A11C0000AD0F0000110F00003D100000B4
S3150000006085100000C91E000000000000000000000E
S31500000070000000000000000000000000000000007A
S31500000080000000000000000000000000000000006A
S31500000090000000000000000000000000000000005A
S315000000A0000000000000000000000000000000004A
S31500000400FFFFFFFFDF8EFFFFFCFFFF00FFFFFF0088
S31500000410FCFFFF00FFFFFF00FCFFFF00FFFFFF00E8
S31500000420FCFF0F20FFFF0F20FCFF7F40FFFF7F40F8
S31500000430FCFF0D40FFFF0D40FFFFFFFFFFFFFFFF2B
S31500000440FFFFFFFFFFFFFFFFFFFFFFFFFFFFFFFFB6
S31500000450FFFFFFFFFFFFFFFFFFFFFFFFFFFFFFFFA6
S31500000460FFFFFFFFFFFFFFFFFFFFFFFFFFFFFFFF96
S31500000470FFFFFFFFFFFFFFFFFFFFFFFFFFFFFFFF86
S31500000480FFFFFFFFFFFFFFFFFFFFFFFFFFFFFFFF76
S31500000490FFFFFFFFFFFFFFFFFFFFFFFFFFFFFFFF66
S315000004A0FFFFFFFFFFFFFFFFFFFFFFFFFFFFFFFF56
S315000004B0FFFFFFFFFFFFFFFFFFFFFFFFFFFFFFFF46
S315000004C0FFFFFFFFFFFFFFFFFFFFFFFFFFFFFFFF36
S315000004D0FFFFFFFFFFFFFFFFFFFFFFFFFFFFFFFF26
S315000004E0FFFFFFFFFFFFFFFFFFFFFFFFFFFFFFFF16
S315000004F0FFFFFFFFFFFFFFFFFFFFFFFFFFFFFFFF06
S315000005000348044B834202D0034B03B1184770479C
S315000005109800002098000020000000000548064BC7
S315000005201B1AD90F01EBA301491002D0034B03B1EB
S31500000530184770479800002098000020000000002F
S3150000054010B5064C237843B9FFF7DAFF044B13B115
S315000005500448AFF300800123237010BDB0000020D3
S3150000056000000000E433000008B5054B1BB1054947
S315000005700548AFF30080BDE80840FFF7CFBF00BFD6
S3150000058000000000B4000020E433000008B50B4969
S315000005900B4801F0F3FD28B90A49094801F0F4FCBB
S315000005A030B908BD084B094A0948122101F040FF3D
S315000005B0054B064A0648142101F03AFF4032000076
S315000005C05C0100202C32000074310000A4310000D0
S315000005D088310000014801F0C1BC00BF5C01002069
S315000005E000B583B001A9034801F0BEFC03B05DF875
S315000005F004FB00BF5C01002000B583B001460DF18D
S315000006000602074801F0B8FC20B9BDF8060003B0A1
S315000006105DF804FB034B044A0448332101F008FF4C
S315000006205C010020743100009C310000883100001C
S3150000063038B5074D074C01223C21284600F0E8FE5C
S31500000640054903462846236001F050F8206038BD6E
S315000006501C010020CC000020FC31000038B5154DEF
S315000006601549164C02220023284600F059FF4FF484
S315000006707A7103466420236001F0E2FE02221049EB
S315000006800023284600F04CFF4FF47A71034664209D
S31500000690236001F0D5FE0B4900232846022200F014
S315000006A03FFF034623604FF47A71BDE8384064206B
S315000006B001F0C6BE1C0100200C000020CC0000206A
S315000006C0080000200400002008B508490848002357
S315000006D0022200F025FF074B02461A604FF47A719A
S315000006E0BDE80840642001F0ABBE00BF000000205A
S315000006F01C010020CC00002070B50F4E0F4C0023CB
S3150000070002220D460146304600F00AFF4FF47A7188
S315000007102060642001F094FE092229460023304619
S3150000072000F0FEFE4FF47A7103466420236001F068
S3150000073087FE206870BD00BF1C010020CC00002091
S3150000074010B1024B02791A70704700BF0E000020EC
S3150000075008B50349034800F025FA034B186008BDA5
S315000007606432000080010020D000002010B504464D
S3150000077002F028F82146C2B20B480C4C00F0CCF926
S31500000780206050B90A4B0B4A04E0013B09D01178AE
S31500000790782903D011780229F7D110BD4FF496704D
S315000007A010BD1420206010BD80010020D000002064
S315000007B0FCFF0300D4000020014B02791A70704739
S315000007C0D400002020B9064B012283F89020704700
S315000007D0022800D07047034B0348596800F0B2BDA9
S315000007E000C07E40DC31000004010020014B0122E4
S315000007F01A707047F400002000B583B002460C4919
S31500000800684601F0A1FF0B4940230B700DF1FF3242
S315000008100DF1070C12F8013FA3F13000092888BF3B
S315000008208023944501F8013FF4D103B05DF804FB41
S31500000830AC310000F800002038B5164C1648237875
S31500000840D3B100224FF4837100F082FC00232370A1
S31500000850C8B9124D124C28882388834205D0FFF769
S31500000860CBFF10491048FFF747FF10491048FFF724
S3150000087043FF2B88238038BD01224FF4837100F09B
S3150000088067FC0123E3E70B4B0B4A0C48F62101F00A
S31500000890CFFD00BFF600002004010020D800002094
S315000008A0D6000020F8000020380000201C000020A0
S315000008B03400002074310000C4310000B031000063
S315000008C02DE9F04F83B0FFF761FEFFF7B1FEFFF7AA
S315000008D0FBFEFFF7C3FEFFF73BFF6A496A4801F0DC
S315000008E06DFA28B1694B6A4A6A48342101F0A0FDC5
S315000008F000F0F8F800F0FEF800287DD16649674858
S3150000090000F020FD28B1614B614A6248492101F09F
S315000009108FFD624804224FF4837100F025FD002804
S315000009206DD15E48042240F20D1100F01DFD002835
S3150000093040F096805A4C23783BB94FF47A71642084
S3150000094001F07EFD2378002BF7D04F48554D564CCD
S31500000950564FDFF87881564EDFF874A1DFF83C91E8
S3150000096001F0D8F9FFF736FEFFF73AFE0420FFF74D
S3150000097043FE2B6844F82300013386FB0321DA1774
S31500000980C2EB610202EB82029B1A3A782B606AB3D1
S31500000990D4E900321A44A3681A44E3681A44236966
S315000009A01A4486FB0213D217C2EB6302A8F8002092
S315000009B0514692B2684601F0C7FE6846FFF7D6FE7A
S315000009C0B8F80030B3F5405F29D3DFF8ECB09BF8F8
S315000009D00030D3B1002240F20D11484600F0B8FBBA
S315000009E0002837D1FFF728FF00233B704FF47A71B8
S315000009F0642001F025FDB5E700F082F87EE7234B81
S31500000A00234A24484D2101F013FD012240F20D1125
S31500000A10484600F09DFB01238BF80030E0E70022FA
S31500000A204FF48371484600F093FB0246F0B9214B20
S31500000A3040F20D111870484600F08AFBE0B91E4BD3
S31500000A401E4918701E48FFF757FE1E491E48FFF73D
S31500000A5053FEC9E70D4B0E4A0E48802101F0E8FC13
S31500000A600A4B0B4A0B484F2101F0E2FC074B084AA0
S31500000A700848892101F0DCFC044B054A05488D2114
S31500000A8001F0D6FC98320000B0010020743100005D
S31500000A90D0310000B0310000E8320000040100202F
S31500000AA0F4000020DC000020E0000020F700002019
S31500000AB067666666F6000020F50000202800002024
S31500000AC0380000201000002034000020D80000204C
S31500000AD0AC310000037913B9014B01221A7070473B
S31500000AE0F70000200149024801F052B8E831000041
S31500000AF00C010020014801F08BB800BF0C0100205A
S31500000B00014801F0A7B800BF0C01002008B5FFF7A7
S31500000B10D7FE002008BD00BF10B4046AA37803F016
S31500000B207B03A370837803F00303D21A0B4402619C
S31500000B30A278C360837803F0030342F08002022B9D
S31500000B40A27005D00B78E37000205DF8044B704767
S31500000B500B8843F47E43E38100205DF8044B704725
S31500000B60F0B5846A85B005460F4694466E46B4B124
S31500000B7094E80F0086E80F00EB691B7884F804C040
S31500000B802360EB6A2046C4E902736B6A9847AC6A35
S31500000B901CB196E80F0084E80F0005B0F0BD34469E
S31500000BA0EAE700BF2DE9F0410A78034602F1007238
S31500000BB0002002F56052187052014C695C62C3E96C
S31500000BC007128A69C3E90A024C789A78844214BFEC
S31500000BD00124022464F301029A7091F90B60C74C58
S31500000BE091F80AC07209203206F01F07012505FA9E
S31500000BF007F744F82270BFF34F8FBFF36F8FC04AD9
S31500000C0006F1C00752F827E060F3104E42F827E0DD
S31500000C1052F82770BB4F04EB060E4FEA0C1C5FFA26
S31500000C208CFC8EF800C347F8263091F9056091F8E0
S31500000C3004C04FEA561E0EF1200E06F01F0805FAF4
S31500000C4008F844F82E80BFF34F8FBFF36F8F06F17D
S31500000C50C00E52F82E8060F3104842F82E8052F8EB
S31500000C602EE004EB060E4FEA0C1C5FFA8CFC8EF8A5
S31500000C7000C347F8263091F9076091F806C04FEA9D
S31500000C80561E0EF1200E06F01F0805FA08F844F865
S31500000C902E80BFF34F8FBFF36F8F06F1C00E52F851
S31500000CA02E8060F3104842F82E8052F82EE004EBB6
S31500000CB0060E4FEA0C1C5FFA8CFC8EF800C347F850
S31500000CC0263091F9096091F808C04FEA561E0EF1D8
S31500000CD0200E06F01F0805FA08F844F82E80BFF328
S31500000CE04F8FBFF36F8F06F1C00E52F82E8060F360
S31500000CF0104842F82E8052F82E204FEA0C12344447
S31500000D00D2B284F8002347F82630EFF3108685F335
S31500000D1010887D4A0F78D2F800414FF00045FD401B
S31500000D2024EA0504C2F80041D2F8002186F31088AF
S31500000D301A6A9070107150729072D07250830C784B
S31500000D4040F20720E040C00744BF4020D074062090
S31500000D50107708784E788F78CC690325C540C87817
S31500000D60E90744BF4FF478419182C100032E41EA5E
S31500000D70071100F0BF80002E0CBFE220F220C9B29E
S31500000D8011709071217B490001F002015173617865
S31500000D90A078C901400100F02000C9B2014300203B
S31500000DA0107294F800C0ACF10200012840F298805D
S31500000DB0C9B2D17161688878507010784D7865F342
S31500000DC001001070C87890740978D07901F05C0140
S31500000DD000F0A3000143D1710020DA69186198611F
S31500000DE0D860586192F90550454A05F1C00152F89C
S31500000DF0216060F3104642F8216052F82110BFF3DB
S31500000E005F8F6909890001F1604101F561410126A1
S31500000E1005F01F0506FA05F5C1F880510D60D96980
S31500000E2091F90B5005F1C00152F8217060F310479B
S31500000E3042F8217052F82110BFF35F8F69098900CB
S31500000E4001F1604101F5614105F01F0506FA05F55E
S31500000E50C1F880510D60D96991F907E00EF1C00122
S31500000E6052F8215060F3104542F8215052F82110F3
S31500000E70BFF35F8F4FEA5E11890001F160410EF00A
S31500000E801F0E01F5614106FA0EF5C1F880510D609D
S31500000E90D96991F9091001F1C00552F8257060F37E
S31500000EA0104742F8257052F82520BFF35F8F4A0994
S31500000EB0920002F1604201F01F0102F561428E408C
S31500000EC0C2F8806116601A6A61890CF0030C4CF056
S31500000ED0700C82F802C00D4A19815A60BDE8F08193
S31500000EE0BCF1020F08BF41F01001FF20C9B25070DB
S31500000EF0D17171E741F04001F22040E700E100E0E6
S31500000F000060004014020020006F0440554943531E
S31500000F1010B4EFF30383103B5BB203F1C001214A27
S31500000F2052F821006FF3104042F8210052F82120B8
S31500000F301D4A52F82300C3691B69ABB1036913B19B
S31500000F405DF8044B7047026A9378446A03F07F03A6
S31500000F5043F0040300219370C160002CF0D05DF8CB
S31500000F60044B8022FFF7FCBD0369026A002BEBD01D
S31500000F708178C46801F0030CBCF1020F0AD094F822
S31500000F8000C082F803C001F003029B1A1444C0E9B2
S31500000F900343D4E7B4F800C04CF47E4CA2F80EC06C
S31500000FA0F1E700BF006000401402002010B582B0D7
S31500000FB0EFF30383103B5BB203F1C0011D4A52F805
S31500000FC021006FF3104042F8210052F821201A4AFE
S31500000FD052F82340A27802F00303022B236A0CBFC7
S31500000FE0198A5979A3690CBFC1F30801C9B20191E5
S31500000FF043B9636AB3B10422204602B0BDE810408B
S31500001000FFF7AEBD02F0030201A9606901F0CCFB57
S31500001010D4E90521A37803F003031A44C91AC4E9E5
S31500001020052109B102B010BD636A002BFAD0012276
S31500001030E2E700BF006000401402002010B5EFF3A5
S315000010400383103B0D4A5CB252F82400D0E9082114
S31500001050937803F07B03937019B102220021FFF706
S315000010607FFD074A04F1C00352F823106FF31041C5
S3150000107042F8231052F8233010BD00BF140200209E
S315000010800060004010B5EFF30383103B194A5CB2D1
S3150000109052F82400837803F00303022B036A0CBF83
S315000010A0198A597993F804C00CBFC1F30801C9B273
S315000010B01CF0100F0CF0380206D093F81CC01CF080
S315000010C0010F08BF42F0400293F804C00CF0C70CB1
S315000010D083F804C0436A0BB1FFF742FD064A04F1E8
S315000010E0C00352F823106FF3104142F8231052F850
S315000010F0233010BD1402002000600040034600208B
S31500001100186070470B0A1B01044853FA81F150F826
S315000011102130C3F3400300201370704700080440D9
S31500001120090A490101F1804101F5802100204B683F
S3150000113013807047090A490101F1804123EA020040
S3150000114001F580211A4042EA00428A600020704779
S3150000115010B4CBB201249C40A4B202B924040B0AF9
S315000011605B0103F1804303F5802300209C605DF85A
S31500001170044B7047090A490101F1804101F58021BC
S3150000118010B40C6802EA0300204362EA030202403C
S315000011905DF8044B0A600020704700BF090A490148
S315000011A001F1804101F5802100204B68C3F30F4314
S315000011B0138070470B0A5B0103F1804303F580231C
S315000011C0C9B2586801238B4099B203EA10435B1AEF
S315000011D0B3FA83F35B09137000207047090A4901CB
S315000011E001F1804123EA020001F580211A4042EA1A
S315000011F00042CA60002070470B0A5B0103F180437E
S3150000120003F58023C9B20120012A00FA01F0DA6849
S3150000121006D042EA0042120C1204DA60002070473F
S31500001220024392B2DA600020704700BF2DE9F04118
S31500001230068896B340684FF0000800EBC6064446A1
S315000012400127B0F804E0164A002332F8021B8E4547
S315000012500BD1056807FA03F105F0B85CC9B2BCF119
S31500001260807F0CBF0C4348EA01080133032BECD105
S3150000127008308642E5D16FEA0805EDB2012001F09B
S3150000128069F9084A92F8BB3423431D4082F8BB54DF
S315000012900120BDE8F04101F02DB9FF253446EDE708
S315000012A06033000000E00140F8B50446FFF7BEFFDA
S315000012B0EFF31082012383F310881F4F3B681BB99D
S315000012C01E49CB704023CB703B6801333B6082F3F1
S315000012D010882388E3B16168194C01EBC30E8A8834
S315000012E00868130AC503D2B202EB031C09D554F8E9
S315000012F02C6020F480356FF3104644F82C6044F8D7
S315000013002C501B01134408318E4544F82300E6D1C6
S31500001310EFF31082012383F310883B6813B13B6817
S31500001320013B3B603B681BB904498020CB70C87009
S3150000133082F31088F8BD00BF10020020000D0440A3
S315000013400008044008B50346034A1A600846FFF73A
S31500001350ABFF002008BD00BF54524F5008B50846E9
S31500001360FFF7A2FF002008BD70B584B002AB0126CE
S3150000137068460C461546ADF80C100292ADF80060B2
S315000013800193FFF753FFEFF3108286F310881D4990
S315000013900B681BB91C48C3704023C3700B6801332C
S315000013A00B6082F31088EA034FEA1423E4B219D4DF
S315000013B01B01164A234442F82350EFF310820123FF
S315000013C083F310880B6813B10B68013B0B600B6845
S315000013D01BB90D498020CB70C87082F3108800209D
S315000013E004B070BD04EB0310084A52F820606FF396
S315000013F0104642F8206025F4803642F820601B0132
S31500001400D7E700BF10020020000D0440000804408A
S31500001410416002720020704730B5836B83B004468A
S315000014200A466D46A3B193E8030085E80300E16B25
S315000014301A71626B196018469047A36B1BB195E849
S31500001440030083E80300002384F82B3003B030BD8B
S315000014502B46ECE730B4304B01691B6A82B003F0CF
S315000014600F230193019A019D0B7C90F82C4094B9AF
S31500001470C2F30322DBB2A2EB156293409B0805D1AF
S31500001480082002B030BC7047013BF9D04A78D20937
S31500001490FAD1B323CB710023026890F8264080F876
S315000014A0283080F82740546A856980F82B30C5615A
S315000014B080F82D30036280F82E3080F82F3080F8C7
S315000014C0303023786478012B14BF0423052343EAC4
S315000014D04403DBB2CB704B7943F001034B7192F9B5
S315000014E00F30002B09DB0D495C09012203F01F03B5
S315000014F002FA03F341F824300169BF23CB7190F857
S315000015002C3033B1002380F82C30002002B030BCE0
S31500001510704702234B70F8E700E0014000E100E06D
S3150000152090F808C080F82A30BCF1010FC0E9051216
S3150000153008D1436880F826C000225B0080F8252089
S3150000154080F82430002380F82930FFF783BF00BFDE
S3150000155003690268F0B51F241C705F241C70DF2429
S315000015601C70546A5568227942F0E0021A74E278D7
S3150000157042F0E0025A74A278120102F0700242F0C0
S3150000158008029A7022786478012A14BF0422052280
S3150000159042EA4402D2B2DA70504A514C954214BF24
S315000015A07722F7225A714FF0000CB32283F806C057
S315000015B0DA7191F911204B7B4A4DA6181B01DBB25B
S315000015C086F80033484B45F8220002F1C00653F86E
S315000015D026706CF3104743F8267053F82660BFF365
S315000015E05F8F5609B60006F1604606F561464FF074
S315000015F0010E02F01F020EFA02F2C6F880213260D6
S3150000160091F90F204E7BA7183601F6B287F80063D2
S3150000161002F1C00645F8220053F826706CF3104715
S3150000162043F8267053F82660BFF35F8F5609B6005D
S3150000163006F1604606F5614602F01F020EFA02F256
S31500001640C6F88021326091F910204E7BA71836012A
S31500001650F6B287F8006302F1C00645F8220053F897
S3150000166026706CF3104743F8267053F82660BFF3D4
S315000016705F8F5609B60006F1604606F5614602F030
S315000016801F020EFA02F2C6F88021326091F90E208E
S31500001690497B14440901C9B284F8001302F1C00160
S315000016A045F8220053F821406CF3104443F82140DA
S315000016B053F82130BFF35F8F53099B0003F160435A
S315000016C003F5614302F01F020EFA02F2C3F880210D
S315000016D01A6003699F221A70F0BD00BF40420F00D6
S315000016E000E100E014020020006000400A7802F5E4
S315000016F0800202F5A662120270B502618A68016074
S3150000170042600A7B0272CA69426300250A6AC263A2
S315000017108563EFF3108C012282F310880B78C3F1F6
S3150000172009039A400E4BD3F8006126EA0202C3F879
S315000017300021D3F800318CF31088FFF709FF094B1D
S3150000174080F82950456180F82A50856180F82B5031
S31500001750C561056280F82C50C360284670BD00BF85
S31500001760006F04404349495210B483B0EFF303833A
S31500001770103B5BB2494AC03352F823106FF3104155
S3150000178042F8231052F82330EFF30383103B444A08
S315000017905BB252F8233093F82D20BAB999691A69C9
S315000017A0012903D9117941F040011171D969012943
S315000017B017D0D27CD2B28DF8072001219DF80720E0
S315000017C083F82D1003B05DF8044B7047DA69002AE0
S315000017D0F8D0032A0ED0022A4ED0012A21D0196948
S315000017E00DE0117941F010011171117941F00801F4
S315000017F01171DEE719690A7942F040020A711A6A24
S315000018005869C97C8154D3E907210131013AC3E9FA
S315000018100721002AD6D119690B7962F386130B7159
S31500001820D0E793F82A1089B319681E4C91F90F1066
S315000018304809203001F01F0102FA01F144F8201096
S31500001840BFF34F8FBFF36F8F1969C87940F08000DF
S31500001850C871087940F01000087108794FF0040C3F
S315000018606FF3C300087181F801C048796FF3000077
S31500001870487183F82C20C2E719690A7942F01002F0
S315000018800A710A7942F008020A71B8E719694A7AB8
S31500001890082002F0F7024A724870B0E70060004084
S315000018A01402002000E100E0EFF30383103B5BB27B
S315000018B0374AC03352F823106FF3104142F8231011
S315000018C052F82330EFF30383103B5BB2314A52F8F0
S315000018D0231091F82730002B3AD191F82930002BAC
S315000018E035D1CB69086910B4002B43D1C3796FF3A6
S315000018F0C713C022C37101E0013A02D0C379DB09E4
S31500001900FAD10B68224A93F9103003F1C00152F85C
S3150000191021406FF3104442F8214052F82120002B59
S3150000192009DB5A091C4C03F01F030121603201FA3E
S3150000193003F344F82230C3795DF8044B43F04003C7
S31500001940C3717047022A09D191F8300030B9704747
S3150000195091F8260091F828200328F3D0086991F819
S3150000196024C080F812C00132013B81F8282081F89A
S31500001970273070470A6A4C69013BA45C84740132C3
S31500001980C1E90732002BB1D05DF8044B704700BFA8
S31500001990006000401402002000E100E010B4EFF304
S315000019A00383103B2C4A5BB252F8233093F829206C
S315000019B01AB193F82720012A49D0DA69E2B11969E8
S315000019C0CA796FF38612C023CA7101E0013B02D0C7
S315000019D0CA795206FAD4EFF30383103B5BB21F4A6F
S315000019E0C03352F823106FF3104142F8231052F817
S315000019F023305DF8044B704793F82A10F9B1196843
S31500001A00174C91F90F10480920304FF0010C01F0E6
S31500001A101F010CFA01F144F82010BFF34F8FBFF3FA
S31500001A206F8F1969C87940F08000C871042048702A
S31500001A30487962F30000487183F82CC0C0E7196941
S31500001A404B7A082203F0F7034B724A70B8E793F813
S31500001A503020002AB1D1B2E7140200200060004015
S31500001A6000E100E010B5EFF30383103B464A5BB29A
S31500001A70E02152F8230003695A7A59725FFA82FC10
S31500001A8002F00301D20617D55A78540616D5A9B91D
S31500001A905A78C2F38011520661D41CF0080F35D073
S31500001AA090F82B20002A46D190F82910B322C1F1D4
S31500001AB00301C9B2DA7118E00029EED0C26901212A
S31500001AC080F82B1072B300240168DC71FFF740FD2B
S31500001AD090F8261082690369C46180F828100262B2
S31500001AE080F82C40B322DA710121FFF795FCEFF361
S31500001AF00383103B5BB2254AC03352F823106FF3C1
S31500001B00104142F8231052F8233010BD90F82C20D3
S31500001B10002AECD01CF0040FE9D090F82B20002A04
S31500001B20E2D1C1E790F82C20002ACCD190F82B20E6
S31500001B30002AD7D0C7E7C26932B990F82C201AB963
S31500001B4090F82B20002ACDD0002290F826408169FB
S31500001B50C26180F82840016280F82C20C2E780F834
S31500001B602B105A7A016802F0F702496A5A72082065
S31500001B7058700A78012A14BF02220322DA705A79B1
S31500001B8042F001025A71B2E71402002000600040E0
S31500001B90F0B591F902C080F804C04FEA8C03D1E990
S31500001BA0026403F1804303F5C0430022D3F80053D7
S31500001BB0C3F80023C0E90264124C91F800E080F8F3
S31500001BC005E004F80E200F79CA784E7942EA07122A
S31500001BD042EAC612D2B2BCF1000F04F80E20C3F8D6
S31500001BE000530BDB4B7808490CF160421B0102F5F0
S31500001BF06142DBB282F8003341F82C00034B0360EC
S31500001C000020F0BD0060004014020020554349004A
S31500001C1090F904200E4B02F1C00153F821006FF336
S31500001C20104043F8210053F82130BFF35F8F53096A
S31500001C309B0003F16043012103F5614302F01F029B
S31500001C4001FA02F2C3F880211A600020704700BF33
S31500001C500060004090F90420002A034619DB510970
S31500001C6010B401200C4C203102F01F0200FA02F2DF
S31500001C7044F82120BFF34F8FBFF36F8F074A93F9C4
S31500001C8004105DF8044B002042F821000020186083
S31500001C90704700201860704700E100E01402002041
S31500001CA010B582B0EFF30384103C184B184A64B2A7
S31500001CB053F824104879135C03F00303032B11D067
S31500001CC0C03452F824306FF3104342F8243052F8EF
S31500001CD024308B6823B1CA68CDE90020684698474E
S31500001CE002B010BD8B6823B1CA68CDE900206846F2
S31500001CF09847C034064B53F824206FF3104243F83C
S31500001D00242053F8243002B010BD00BF1402002076
S31500001D10006000400346D3E9022300205360704769
S31500001D2070B5836984B004468C46164601AD9BB1F6
S31500001D3093E8070085E8070083F804C0E2691A60A3
S31500001D409E60184662699047A3691BB195E8070033
S31500001D5083E8070004B070BD2B46EDE7002800DAE3
S31500001D60704710B400F16043124C03F5614309015A
S31500001D70C9B283F8001300F1C0010F4B44F82020CC
S31500001D8053F821206FF3104243F8212053F82130F5
S31500001D90BFF35F8F43099B0003F1604300F01F0010
S31500001DA003F5614301228240C3F880211A605DF881
S31500001DB0044B70471402002000600040F8B50B7C0D
S31500001DC001260A4606FA03F103F5800303F5F063DC
S31500001DD01B0211F0030FC0E902310CBF334600238A
S31500001DE00374D2E9051341610021D56942600446B6
S31500001DF0C3618161EFF3108786F31088304B107C46
S31500001E00B042D3F808018CBF6FF040066FF0200691
S31500001E103040C3F80801D3F8083187F31088A36867
S31500001E2056684FF425401860D962D9639964117ACF
S31500001E301078490809060328D5E906EC08BF41F4DD
S31500001E408031D962E96A00204FF00047013E1F61E8
S31500001E505F619F6158629862C3F81CE0C3F820C0B6
S31500001E609E665E669863C3F8880031B995F82110BE
S31500001E7095F82000490741EA4031E0684FF4AA0688
S31500001E801E64D86059630321196301211963517CCB
S31500001E9092F912002246FFF761FF95F8221095F994
S31500001EA024002246FFF75AFF95F9250095F82310DE
S31500001EB02246FFF753FF034B23600020F8BD00BF07
S31500001EC0006F04405450470070B5EFF30382103A98
S31500001ED04FFA82FC1E4C0CF1C00E4FEA8C0354F8EC
S31500001EE02E1003F180436FF3104144F82E1003F5D2
S31500001EF0C043D3F80013174951F82C0041680978FC
S31500001F00012908D043692BB10022BDE87040114673
S31500001F10FFF706BF70BDD0E90265B5600025B56460
S31500001F20F564356554F82E6065F3104644F82E6066
S31500001F3002F0FF02D3F80033BFF35F8F4FEA5C1362
S31500001F40054C02F01F026033914044F82310D9E794
S31500001F50006000401402002000E100E0034600207B
S31500001F601A689B8A1380704703681B88C3F3C033C3
S31500001F7000200B70704700BF03681031002033F853
S31500001F8011301380704700BF43682DE9F041D1E955
S31500001F9001250C685E6903681FFA84F8A3F80480BB
S31500001FA01FFA82F8A3F8148022F0405C1FFA85F825
S31500001FB024F0405E25F040572243A3F808804FEAFC
S31500001FC01C4C3F0C4FEA1E4812F0405FA3F80680F7
S31500001FD0A3F816C05F8154D1CA68002A00F0938026
S31500001FE015892F0522D5D2E900C7B2F80A80A3F8D1
S31500001FF09050A3F89C80B2F80C80A3F89E801FFA3C
S315000020008CF8A3F89480CCF30B484FEA1C7CA3F819
S31500002010968083F892C01FFA87FCA3F898C0C7F38E
S315000020200B4C3F0FA3F89AC083F89370AF051AD4F0
S315000020300A8AA3F89050A3F88020F2786AB11A8829
S31500002040818A92B222F01F02BEFA8EFE1F32A2EBE6
S315000020500E0292B211431A8081822C4BC0E90334DE
S315000020600020BDE8F081977C92F813C047EA0C0780
S3150000207083F8A670D789128AA3F8A870A3F8AA20B5
S31500002080D6E7234FD7F82080224F3F68C8F3026C6B
S3150000209007FA0CFCC8F302181F4F2CFA08FCA7FB22
S315000020A00C7C4FEA9C1C1D4F41F2883808FB0CFC47
S315000020B0A7FB0C7C4FEA9C4C0CF1010CBCF1070F02
S315000020C038BF4FF0070C12F080570AD05FFA8CF732
S315000020D015F0805F83F8DE7040F2011708BF4FF4F9
S315000020E08077920009D55FFA8CFC47F40077AA0046
S315000020F083F8DFC048BF47F00207CA68BFB25F82F5
S31500002100002A7FF46DAF154692E700BF4344415263
S3150000211000E00140A0020020D34D621083DE1B4385
S3150000212010B400F16043134C03F561430901C9B2D1
S3150000213083F8001300F1C0010F4B44F8202053F838
S3150000214021206FF3104243F8212053F82130BFF3CA
S315000021505F8F43099B0003F1604300F01F0003F506
S31500002160614301228240C3F880211A605DF8044B66
S31500002170704700BF14020020006000402DE9F843BC
S315000021800B880C465B0222696669C968026203F124
S31500002190804303F5B8230022036081614460C26175
S315000021A0317962790546A0788F074FEA0223F178E4
S315000021B043EA403354BF43F0400343F488630029A5
S315000021C061D043F42073022A08BF384A9BB208BF85
S315000021D032F821C0AB8218BF4FF0000C2279E178AB
S315000021E096F800E0D20342EA4102717842EA4110D1
S315000021F0EFF31088012181F310882D4F2288D7F83C
S315000022000891C2F1100201FA02F229EA0202C7F8A5
S315000022100821D7F8082188F3108847F6FF572A685F
S3150000222080B23B401380A2F810C0D08182F80CE047
S31500002230337998072FD482F88A3094F9060000285B
S3150000224003DB217A2A46FFF76BFF94F90700002883
S3150000225003DB617A2A46FFF763FF96F9060000283A
S3150000226003DB317A2A46FFF75BFF96F90700002861
S3150000227003DB717A2A46FFF753FF0E4BAB60002053
S315000022802861BDE8F883002A9DD143F400439BB240
S31500002290AB829446A2E743F0030382F88A300846ED
S315000022A000F0CEF82A683379C5E700BF9C330000FA
S315000022B0006F044043444152064B074993F82600F9
S315000022C01A6A51F820300549C2F30262D3400B6006
S315000022D0704700BF00E0014098000020A0020020E7
S315000022E0494B4A494A4A70B500204A4D4A4E4AF27D
S315000022F00354A3F8FE43A1F8000148496960484920
S315000023002A604FF40042C5E90221464C93F8261094
S315000023106C612A6155F82120196AC1F30261CA402D
S315000023200921326083F8130483F8A21093F88024FD
S31500002330002A60D0344B002283F8812483F880245D
S3150000234093F8A0208AB193F83620002A4AD02E4A64
S3150000235092F8A030D806C3F30011F9D42A4882F8BF
S31500002360A01090F8A030D906FBD4274C01220023F8
S3150000237084F8362084F8323094F83C301A07FBD5BE
S31500002380472384F82B30072000F054F800231E4A18
S3150000239084F82A3092F83C309B06FBD5224B1B4929
S315000023A0012482F831401362052382F8263092F820
S315000023B02630106A55F82330C0F30260C3403360FC
S315000023C000254FF4254382F8D050A2F8FE33A1F839
S315000023D00441B1F804319BB2002BFAD10123A1F8D4
S315000023E0003170BD93F83C20D407B0D493F83C205C
S315000023F0D407F7D5ABE7012183F8801440F2C44037
S3150000240000F01EF896E700BF00E0014000C0014062
S3150000241000366E0198000020A002002000127A000B
S31500002420001BB700006CDC0200010110704700BF02
S3150000243000BEFEE7A0F101000028FBD1704700BFF7
S3150000244030B400FB01F1104D104A2868B2FBF0F2DF
S315000024504FF47A73A1FB03C43CB9BCFBF2FC4FEA10
S315000024609C0070B130BCFFF7E5BF9200B1FBF2F102
S31500002470A1FB03134FF0FF30002BF3D108460028D1
S31500002480F0D130BC704700BFA002002000CA9A3BC2
S315000024900B4B70B5B3F840510A4E0024ADB225FA85
S315000024A004F3DB0704D556F82430E0B203B19847AD
S315000024B00134102CF3D1024BA3F8305170BD00BF8C
S315000024C000600040D0010020084B10B4084C03F116
S315000024D0200C5842C21813F8011FC032634544F855
S315000024E02210F7D15DF8044B704700BF3F33000060
S315000024F000600040EFF31081012383F31088124B34
S3150000250033F8102092B22AB133F81020013A92B271
S3150000251023F8102033F810309BB293B90B4A10B44D
S31500002520B2F8FE330A4C9BB234F8100043F425434C
S3150000253023EA0003A2F8FE3381F310885DF8044B0A
S31500002540704781F3108870479402002000E0014034
S31500002550A833000030B4EFF31081012383F3108811
S315000025600E4A32F810309BB26BB90D4C0D4DB4F8D3
S31500002570FE3335F810C09BB243EA0C0343F42543FF
S315000025809BB2A4F8FE3332F8103001339BB222F826
S31500002590103081F3108830BC704700BF94020020D1
S315000025A000E00140A83300000B4A08B50346106856
S315000025B040B10333094923F0030303448B4204D893
S315000025C0136008BD06481060F3E700F0E5F80C2339
S315000025D003604FF0FF3008BD9C020020F00300208E
S315000025E0F003002000BE704708B500F003F8FEF7C0
S315000025F08DFAFEE7F0B5464B464A474E4FF470005B
S31500002600C3F888004AF202519E600123A2F8FE1325
S3150000261083B082F81F3492F8B134DB06FBD5002074
S315000026204FF425470446A2F8FE73FEF7CBF8FFF7F2
S3150000263057FE8DF8074001209DF80730FFF78AFF07
S31500002640EFF31081012585F31088344BD3F804216C
S3150000265022F00042C3F80421D3F8042181F3108844
S315000026602F4A1168C1F300018DF807101168C1F3F4
S3150000267000018DF807101268C2F300028DF80720DA
S31500002680EFF3108185F31088D3F8042142F000425D
S31500002690C3F80421D3F8043181F310882846FFF7E4
S315000026A029FF2846FEF78EF832681E4B1E489C808E
S315000026B0A2F580611F809960DA601C491C4A4FF4BC
S315000026C08056A1F82061121A9D80214600F05CF820
S315000026D01848194A19491A4D121A00F065F8194B8B
S315000026E05B1BA3424FEAA30605DD55F8043B013404
S315000026F09847A642F9DCFFF7DFFD0220FEF762F8F5
S31500002700FFF7E2FE002003B0BDE8F040FFF78EBE03
S3150000271000ED00E000E0014000000000006F044012
S3150000272000080440000D0040B0000020006000409A
S31500002730EC03002000000020980000206834000010
S3150000274090000020940000200EB400B59CB01DAB94
S31500002750029006906FF000410948079104910949DB
S3150000276053F8042B05910068019302A900F086F93D
S31500002770029B00221A701CB05DF804EB03B0704790
S31500002780400000200802FFFF02440346934200D1A6
S31500002790704703F8011BF9E7014B1868704700BF43
S315000027A040000020704770470A44914200F1FF3311
S315000027B000D1704710B511F8014B03F8014F914253
S315000027C0F9D110BD034613F8012B002AFBD1181AC4
S315000027D00138704738B50546002941D051F8043C08
S315000027E00C1F002BB8BFE41800F0E0F81D4A136870
S315000027F033B9636014602846BDE8384000F0DCB8A1
S31500002800A34208D9206821188B4201BF19685B686A
S3150000281009182160EDE71A465B680BB1A342FAD9A5
S3150000282011685018A0420BD1206801445018834209
S315000028301160E0D118685B68536008441060DAE7FD
S3150000284002D90C232B60D6E7206821188B4204BFDF
S3150000285019685B68636004BF091821605460CAE7A1
S3150000286038BD00BFE803002070B50F4E0C46316836
S31500002870054611B900F0B2FB30602146284600F04B
S31500002880ADFB431C03D14FF0FF34204670BDC41C82
S3150000289024F00304A042F8D0211A284600F09EFB3B
S315000028A00130F2D1EFE700BFE40300202DE9F84341
S315000028B0CD1C25F0030508350C2D38BF0C25002D41
S315000028C0064601DBA94204D90C2333600020BDE88B
S315000028D0F883DFF8D48000F069F8D8F800301C4699
S315000028E044BB29463046FFF7BFFF431C044658D178
S315000028F0D8F800402746002F43D1002C4BD0236840
S315000029003946304604EB030900F068FB814542D1A5
S3150000291021686D1A29463046FFF7A6FF01303AD0E6
S3150000292023682B442360D8F800305A6862BBC8F885
S3150000293000700FE02268521B20D40B2A17D96119A8
S31500002940A342256018BF5960636808BFC8F8001025
S3150000295062514B60304600F02FF804F10B00231D46
S3150000296020F00700C21A1CBF1B1AA350AFE762680B
S31500002970A3420CBFC8F800205A60EBE72346646800
S31500002980AEE73C467F68B6E71A465B68A342FBD1D2
S3150000299000235360DEE70C233360304600F00CF86A
S315000029A094E70560D6E700BFE80300200148FFF77B
S315000029B0F9BE00BFE00300200148FFF7F4BE00BFE8
S315000029C0E00300202DE9F0478E681F46BE420B68E3
S315000029D082460C4690462DD8B1F90C2012F4906F21
S315000029E026D06569096905EB4505A3EB010905EBE9
S315000029F0D5757B1C4B446D109D4238BF1D46530553
S31500002A0027D52946FFF752FF064660B321694A4695
S31500002A10FFF7CAFEA38923F4906343F08003A381E2
S31500002A20266165614E44A5EB09052660A5603E4614
S31500002A30BE4200D93E4620683246414600F0B4FA0E
S31500002A40A3689B1BA3602368334423600020BDE872
S31500002A50F0872A4600F024FB06460028E0D12169CB
S31500002A605046FFF7B7FE0C23CAF80030A38943F09F
S31500002A704003A3814FF0FF30E9E7FFFF2DE9F04F58
S31500002A8098468B891B069DB007460D46144610D501
S31500002A900B6973B94021FFF709FF2860286130B937
S31500002AA00C233B604FF0FF301DB0BDE8F08F402394
S31500002AB06B610023099320238DF82930CDF80C8013
S31500002AC03023DFF89C818DF82A304FF00109234628
S31500002AD09A4613F8012B0AB1252AF9D1BAEB040B51
S31500002AE00BD05B46224629463846FFF76BFF01307E
S31500002AF000F0A780099A5A4409929AF80030002BF0
S31500002B0000F09F8000234FF0FF32CDE905230AF144
S31500002B10010A049307938DF853301A9354460522FD
S31500002B2014F8011B4E4800F06BFA049AD8B9D00687
S31500002B3044BF20238DF85330110744BF2B238DF853
S31500002B4053309AF800302A2B15D0079A54460020A5
S31500002B504FF00A0C214611F8013B303B092B4BD9AB
S31500002B60B0B1079214E0A0EB080309FA03F313438C
S31500002B700493A246D2E7039B191D1B680391002B01
S31500002B80BBBF5B4242F0020207930793B8BF0492B1
S31500002B9023782E2B0AD163782A2B32D1039B1A1D58
S31500002BA01B68039243EAE37302340593DFF8C0A07F
S31500002BB021780322504600F023FA38B1049BA0EB9B
S31500002BC00A004022824013430134049314F8011B87
S31500002BD024488DF82810062200F012FA002836D074
S31500002BE0214B1BBB039B073323F0070308330393D7
S31500002BF0099B334409936AE70CFB02320C46012019
S31500002C00A8E700230134059319464FF00A0C204625
S31500002C1010F8012B303A092A03D9002BC6D00591AA
S31500002C20C4E70CFB012104460123F0E703AB009344
S31500002C302A460E4B04A93846AFF30080421C0646CE
S31500002C40D6D1AB895B063FF52DAF09982CE703ABD0
S31500002C5000932A46054B04A9384600F079F8EDE7BB
S31500002C60B0330000BA33000000000000C5290000A0
S31500002C70B63300002DE9F047164698468A680B6978
S31500002C80DDF820909342B8BF1346336091F8432095
S31500002C9007460C460AB1013333602368990642BFE2
S31500002CA0336802333360256815F0060506D104F152
S31500002CB0190AE36832689B1AAB4226DC94F8433063
S31500002CC02268003B18BF012392062BD404F143026D
S31500002CD041463846C84701301ED02368226903F0B2
S31500002CE00603042B02BFE5683368ED1AA3680CBF20
S31500002CF025EAE57500259342C4BF9B1AED18002608
S31500002D001A34B5421AD1002008E001235246414642
S31500002D103846C847013003D14FF0FF30BDE8F08791
S31500002D200135C6E7E1185A1C302081F843002244D9
S31500002D3094F8451082F843100233C7E70123224670
S31500002D4041463846C8470130E6D00136D9E7FFFF8D
S31500002D502DE9FF470F7E0C9E782F914680460C4644
S31500002D609A4601F1430207D8622F0AD8002F00F0D5
S31500002D70DD80582F00F0C38004F1420684F84270CB
S31500002D803AE0A7F16303152BF6D801A151F823F019
S31500002D90E92D0000FD2D0000792D0000792D0000A1
S31500002DA0792D0000792D0000FD2D0000792D000001
S31500002DB0792D0000792D0000792D0000132F0000D9
S31500002DC08B2E0000CB2E0000792D0000792D0000FF
S31500002DD0352F0000792D00008B2E0000792D000084
S31500002DE0792D0000D32E000033681A1D1B6832604F
S31500002DF004F1420684F842300123A8E031682368D2
S31500002E00081D30601E0601D50D6803E05D06FBD582
S31500002E10B1F900506168002D78DA2D20002984F878
S31500002E204300A1602DDA5E486D420A231646B5FBC3
S31500002E30F3F103FB1157C75D06F8017D2F46BB4230
S31500002E400D46F4D9082B0BD12368DF0708D5236973
S31500002E5061689942DEBF302306F8013C06F1FF3671
S31500002E60921B2261CDF800A04B4603AA214640469C
S31500002E70FFF700FF01306FD14FF0FF3004B0BDE81F
S31500002E80F08723F004032360CDE721683368080642
S31500002E9053F8045B02D4490648BFADB26F2F4048D1
S31500002EA0336014BF0A230823002184F843106668A0
S31500002EB0A660002EBADB216821F004012160002DF6
S31500002EC0B4D1002EB2D11646BCE7236843F02003E6
S31500002ED023603448782784F84570236831681F06D4
S31500002EE051F8045B02D45F0648BFADB23160D90722
S31500002EF044BF43F0200323601DB11023D4E72848C4
S31500002F00E9E7236823F020032360F6E724480A2331
S31500002F10CDE7336825686169181D30602E061B6889
S31500002F2001D5196002E06806FBD5198000232361EC
S31500002F30164697E733681A1D32601E6862680021DC
S31500002F40304600F05DF808B1801B6060636823615D
S31500002F50002384F8433085E72369324649464046D4
S31500002F60D047013088D023689B0714D4E068039BC0
S31500002F709842B8BF184681E7012332464946404683
S31500002F80D04701303FF478AF0135E36803995B1A07
S31500002F90AB42F1DCEAE7002504F11906F5E700BFCC
S31500002FA0C1330000D2330000884210B501EB0204A1
S31500002FB002D98442234607D8431EA14208D011F8FD
S31500002FC0012B03F8012FF8E7024401468A4200D19B
S31500002FD010BD13F8014D02F8014DF7E738B5064D5F
S31500002FE00023044608462B60FFF7DEFA431C02D195
S31500002FF02B6803B1236038BDDC030020FFFFFFFF11
S3150000300001F0FF01102A2BDB10F0070F08D010F893
S31500003010013B013A8B422DD010F0070F42B3F6D197
S31500003020F0B441EA012141EA014122F007047FF0B0
S3150000303000070023F0E80256083C85EA010586EA07
S31500003040010685FA47F5A3FA87F586FA47F6A5FA43
S3150000305087F68EB9EED1F0BC01F0FF0102F007024F
S3150000306032B110F8013B013A83EA010313B1F8D1FA
S315000030700020704701387047002D06BF35460338DB
S31500003080073815F0010F07D1013015F4807F02BF14
S31500003090013015F4C03F0130F0BC0138704700BF65
S315000030A02DE9F041804615460C4621B9BDE8F041B0
S315000030B01146FFF7FBBB2AB9FFF78CFB002420461D
S315000030C0BDE8F08100F01AF88542064602D8B5EB55
S315000030D0500FF4D829464046FFF7E8FB074600287C
S315000030E0ECD0B5422A46214628BF3246FFF75CFBA4
S315000030F021464046FFF76EFB3C46E0E751F8043CAC
S31500003100181F002BBCBF0B58C01870474275696C5E
S315000031107420776974682052656E65736173204107
S315000031206476616E63656420466C657869626C6579
S3150000313020536F667477617265205061636B6167B7
S31500003140652076657273696F6E20342E322E3000DC
S31500003150342E322E3000000000000204F8B500BF05
S31500003160F8BC08BC9E467047F8B500BFF8BC08BC62
S315000031709E4670474653505F53554343455353202D
S315000031803D3D2065727200002E2E2F7372632F4113
S3150000319044435F706F742E6300FFFFFF52656164E6
S315000031A041444300414443496E697400256900FF68
S315000031B02E2E2F7372632F68616C5F656E74727941
S315000031C02E6300FF656D657267656E637900FFFFAC
S315000031D068616C5F656E74727900FFFF0401002000
S315000031E0E832000068330000000504010301000016
S315000031F0ED070000000000000000000001000000D4
S31500003200A08601003C000000010C00010203000042
S315000032100000000000000000410700000000000060
S31500003220243200000100021A1BFFFFFF10000000FD
S315000032300000000000000000000000000000001870
S31500003240000000030000DFDFFFFF000000000000B9
S315000032500000000058320000000102000000DFDF1D
S31500003260FFFFFFFF090200000C050C060C070C0807
S315000032700000000000000000B90700000000000088
S3150000328084320000000100003C0000200F00FFFF18
S3150000329000000000FFFF000000000000006CDC02E0
S315000032A00000000000366E0100050900D50A000086
S315000032B000000000B832000000000000000000001E
S315000032C000000000000000000000000000000000F8
S315000032D000000000000000000000FFFFDFDF00002C
S315000032E000000000000000000A000000F0320000AC
S315000032F00080000004000000000401070001000037
S315000033000040000005010000000001000801000067
S315000033100000010009010000000001000A01000090
S31500003320000401070602000000000100000300007F
S31500003330000001050106000000000105020600006C
S315000033403A3B3C3D01A8A9AAAB5D00000000000085
S315000033500000000000000000000000000000000067
S31500003360020403040404FFFF45130000FD100000DF
S315000033705D13000069130000B5110000F91100008B
S315000033800511000051110000751100009D1100008B
S31500003390DD11000021110000351100000A090000AE
S315000033A00A0900003F0B000001000200080010009F
S315000033B0232D302B2000686C4C0065666745464718
S315000033C0003031323334353637383941424344459B
S315000033D0460030313233343536373839616263640A
S315000033E0656600FF1000000000000000017A520030
S315000033F0027C0E011B0C0D001000000018000000DE
S31500003400C4F3FFFF100000000000000010000000E1
S3150000341000000000017A5200027C0E011B0C0D0018
S315000034203800000018000000D8FBFFFF9E000000D7
S3150000343000510E1084048503860287015BC7C6C54A
S31500003440C40E004C0A420B0A420B0E10840485037C
S315000034508602870151C7C6C5C40E000000000000E1
S30D0000346064F3FF7F0100000088
S315000034680001000000060000000C00000038010002
S315000034784080808080808080800000004050454CDD
S315000034884947524F800000004053595354454D4F09
S315000034984E00000000C00000008000004000190037
S315000034A84400002000000000A40200200C030020B5
S315000034B87403002000000000000000000000000067
S315000034C800000000000000000000000000000000EE
S315000034D800000000000000000000000000000000DE
S315000034E800000000000000000000000000000000CE
S30D000034F8690500004105000012
S31501010018FFFFFFFFFFFFFFFFFFFFFFFFFFFFFFFFE0
S31101010028FFFFFFFFFFFFFFFFFFFFFFFFD0
S705000025E9EC
